:020000040000FA
:030000000200E318
:03002B000209893E
:03004B0002086840
:03005B0002090097
:03006B0002093A4D
:1000830002099F00000080FB120113B90003020064
:10009300CDE4900100780B79018002F0A3D8FCD95C
:1000A300FA90010AAA82AB8390011678077901803E
:1000B30015E493A3AC82AD838A828B83F0A3AA82D7
:1000C300AB838C828D83D8E9D9E77582C375832589
:1000D30074001200F575828675830074001200F5B2
:1000E30075D0007581BF751000751101759F0002F1
:1000F300008BC09FF59FE473D09F22D083D082C032
:100103009FE493C0E0740193C0E0740293F59F22CF
:10011300790122FFFFFFFFFFFF1200FE7528001287
:1001230000FEA428001200FE0B29001200FE9829ED
:10013300001200FEDB32001200FEE732001200FE66
:10014300FF32001200FE3035001200FE3E35001271
:1001530000FE1232001200FE3832001200FE473257
:10016300001200FE7832001200FE8B32001200FEF5
:10017300AC32001200FE1E1A001200FE731C0012A5
:1001830000FE441D001200FE2313001200FE35136F
:10019300001200FEC814001200FE9F15001200FE9C
:1001A300C415001200FED717001200FE9B180012A0
:1001B30000FE3619001200FE7A2A001200FE372BC9
:1001C300001200FEFB2B001200FEAC2F001200FEFB
:1001D300B22F001200FEC32F001200FEED2F0012FB
:1001E30000FE1730001200FE3430001200FE97307C
:1001F300001200FEE630001200FE0E35001200FE73
:100203001735001200FE2435001200FE2A350012B5
:1002130000FE5C35001200FEDE09001200FEF2094A
:10022300001200FE430A001200FE550A001200FEEF
:10023300730A001200FE9B0A001200FE170B001245
:1002430000FE8E0B001200FE400C001200FE280D73
:10025300001200FE260E001200FE8B0F001200FE9D
:100263001410001200FE9712001200FEB5120012C5
:1002730000FED012001200FEDE12001200FE021376
:10028300001200FE5534001200FE6434001200FE1A
:100293007A34001200FE9034001200FE5A1E00123F
:1002A30000FECF1E001200FEA220001200FE6B21F2
:1002B300001200FEB321001200FE212E001200FEE8
:1002C300702E001200FEDC2E001200FE402F0012E2
:1002D30000FE0D31001200FE1931001200FE29311B
:1002E300001200FEFB31001200FEE933001200FE93
:1002F300F733001200FE0334001200FE173400121D
:1003030000FE3834001200FE4D35001200FE6C2C46
:10031300001200FE7B2C001200FE992C001200FE3E
:10032300A02C001200FEA72C001200FEE22C0012EB
:1003330000FE7722001200FEA222001200FED42249
:10034300001200FE0E23001200FE8223001200FEA4
:10035300F623001200FE3724001200FE4E24001282
:1003630000FE5C24001200FEB124001200FEFF24F4
:10037300001200FE1025001200FE9B34001200FE46
:10038300E134001200FE763300E066701008A3E04B
:1003930066700A08A3E066700408A3E06622C3E758
:1003A300960809E7960809E7960809E796220808D8
:1003B30008EAC0E0EBC0E086F0E7A4FA180986F08B
:1003C300E7A42AFA180986F0E7A42AFA180986F09E
:1003D300E7A42AFA1986F0E7A4FBE5F02AFA19083C
:1003E30086F0E7A42BFBE5F03AFA190886F0E7A4B8
:1003F3002BFBE5F03AFA18180986F0E7A4C5F02BB1
:10040300FBE43AFA1908E7C5F0C6A426F6E5F03B83
:10041300FBE43AFA1886F0E7A4F6E5F00826F6E4DA
:100423003B08F6E43A08F6D0E0FBD0E0FA22601687
:10043300080808C6C313C618C613C618C613C618B9
:10044300C613C6D5E0EA2270090808082260161808
:100453001818C6C333C608C633C608C633C608C68B
:1004630033C6D5E0EA22E49326F60874019336F600
:100473000874029336F60874039336F622E026F0E6
:1004830008A3E036F008A3E036F008A3E036F02234
:10049300E046F008A3E046F008A3E046F008A3E036
:1004A30046F022E0F608A3E0F608A3E0F608A3E08E
:1004B300F622E493F608740193F608740293F6089F
:1004C300740393F622E6F008A3E6F008A3E6F00827
:1004D300A3E6F022CAC0E0E6F0A308DAFAD0E0FA15
:1004E30022CAC0E0E0A3C582CCC582C583CDC58343
:1004F300F0A3C582CCC582C583CDC583DAE6D0E03F
:10050300CA22CAC0E0E493A3C582CCC582C583CD09
:10051300C583F0A3C582CCC582C583CDC583DAE587
:10052300D0E0CA22B90010BB0008E88AF084F8AA18
:10053300F022E4FBC8FA22EB70227B10C833C8C94F
:1005430033C9335007C39AC3DBF280069A50012A9A
:10055300DBEAC833F4C8C933F4C9FA2275F008E4F6
:10056300C833C8C933C933C99AC99B5004C92AC9F6
:100573003BD5F0ECFBC833F4C8E4C9FA227004227B
:10058300600D18C6C333C608C633C6D5E0F41822B7
:10059300251010AF08F510400215118008F5104022
:1005A300021511D2AF22C0D0251010AF08F510509C
:1005B3000205118008F51050020511D2AFD0D022E8
:1005C3002510F58210AF08F510400215118008F5CB
:1005D3001040021511D2AF85118322C5822510C5A3
:1005E30082C583351110AF07F5118582108007F599
:1005F30011858210D2AFC583222510F582E435110F
:10060300F58322C0E0E8C0E0E58124FCF8E6A2E738
:10061300D0E0F8D0E0222510C582C0E0E51134FF18
:10062300C583C0E0E510C3958224F810AF08858325
:10063300118582108008858311858210D2AFCEF098
:10064300A3E520F0A37808E608F0A3DEFAEFF0A311
:10065300E58124FAF8E608F0A3E608F0A3E608F03B
:10066300A30808E608F0A3E608F0A315811581D0D6
:10067300E0FED0E0F8158115811581E8C0E0EEC0F9
:10068300E022851183851082E0A3FEE0A3F52078A4
:1006930008E0A3F608DFFAE0A3FFE0A3C0E0E0A3CD
:1006A300C0E0E0A3C0E0E0A3C0E0E0A3C0E010AF7F
:1006B300088582108583118008858210858311D275
:1006C300AFD083D0820200FBC0D02510C582C0E02A
:1006D300E51134FFC583C0E0E510C3958224F31010
:1006E300AF08858311858210800885831185821068
:1006F300D2AFC8F0A3E9F0A3EAF0A3EBF0A3790823
:10070300E709F0A3D8FAECF0A3EDF0A3EEF0A3EF22
:10071300F0A3D0E0F0A3D0E0F0A3D0E0F0A3E52075
:10072300F0A3E5F0F0A322851183851082E0C0E0F9
:10073300A3E0F9A3E0FAA3E0FBA37808E0F608A39B
:10074300DFFAE0FCA3E0FDA3E0FEA3E0FFA3E0C02B
:10075300E0A3E0C0E0A3E0F5D0A3E0F520A3E0A38D
:10076300F5F010AF08858311858210800885831109
:10077300858210D2AFD082D083D0E0F8D0E032743B
:100783000280027401C0E0F4041205C3D0E0120435
:10079300D722CCC0E0EDC0E0E510C39CCCAD115036
:1007A300011D10AF068C108D1180068C108D11D297
:1007B300AF1204E4D0E0FDD0E0FC22000000000012
:1007C3000000000000000000000000000000000026
:1007D3000000000000000000000000000000000016
:1007E3000000000000000000000000000000000006
:1007F30000000000003D3D3D3D0000000000000002
:1008030000000000003D3D3D3D2D2D2D2D0000003D
:10081300002D2D2D2D000000000000000010000011
:100823000018000000040000009000000000000019
:100833000001000000D0070000FFFFFFFF160112B8
:1008430002143600000000000000000080000000D9
:100853000000000000000000000000000000000095
:100863000000000000C0E0C0D0C082C083C2AF90CF
:100873000101E064027009900105E02401F0800F9A
:10088300900102E064027007900106E02401F090F9
:100893000103E064027007900107E02401F0900176
:1008A30005E06402700E9001017403F09001057479
:1008B30000F08014900106E06414700C900102743F
:1008C30003F09001067400F0900107E0643C700CA3
:1008D3009001037403F09001077400F0900103E0AA
:1008E3006401700C900107E060069001077400F04A
:1008F300C2C1D2AFD083D082D0D0D0E032C0E0C06A
:10090300D0C082C083C2AFC2C3900104E06402704E
:1009130007900108E02401F0900108E06405700CE1
:100923009001047403F09001087400F0D2AFD083F7
:10093300D082D0D0D0E032C0E074F21206CBC2AF86
:10094300E589A2E1501CA2814030900109E06402D4
:10095300702812016479041202E49001097401F011
:100963008018E589A2E45012A284400E900100E0B1
:10097300640270069001007401F0758900C2C5D24B
:10098300AF7F0102072AC0E074F21206CBC2C7127E
:10099300016479041202E47F0102072AC0E074F2C1
:1009A3001206CB7582007583FC1205DEC2AFE5E942
:1009B300A2E65013851082851183AA82AB831202AB
:1009C300C6759B0053E9BFD2AF92F0758200758361
:1009D300041205DEA2F07F0102072AC082C083123F
:1009E300021E120224120230D083D0820200FBC006
:1009F30082C083D2977901120272C29779011202DF
:100A030072D29779011202727A0F79011202787AFF
:100A13008D792A1202787A3E792B1202787A30790C
:100A23002D1202787A00792C1202787A3D7911120C
:100A330002787A407915120278D083D0820200FBC3
:100A4300C082C0837A037914120266D083D08202F3
:100A530000FBC082C083791412027EE9F874035844
:100A630070077A03791412026CD083D0820200FBE0
:100A7300C082C0837A08790812026C7A86791712C9
:100A830002787A7F792612027879011202721202B1
:100A93002AD083D0820200FB74F21206198A088BD3
:100AA30009890AECFEEDFF7A0479051202667A8061
:100AB300790A12026C750B00801B850B0C750D00F7
:100AC300E508250CF582E509350DF583E0FA79098A
:100AD300120278050BE50BC3950A40DE7A03790110
:100AE300120278750BFF790512027EE9F8150BE502
:100AF3000B6005E8A2E250EE792212027EE98E82B3
:100B03008F83F0792112027EE98E828F83A3F07F97
:100B13000602068574F412061974FC120593E9FFA4
:100B23008A0A8B0B7E017A07790D120278EF850A08
:100B330082850B83F08510828511838582088583E6
:100B4300097808120782780A1207827C01AA0AAB85
:100B53000B790C12026074041205A9E9FEEE701DF4
:100B6300851082851183C082C08390082078081283
:100B730004B5D083D082780812038C60027E01EE24
:100B8300F974041205A97F0402068574F01206198C
:100B930074FC1205938A0A8B0B7E01750C007A088C
:100BA30079081202667A00790D1202787A80790E3A
:100BB300120266850A82850B837493F0850A828507
:100BC3000B83A37420F085108285118385820885A9
:100BD30083097808120782780A1207827C02AA0A1C
:100BE300AB0B790C12026074041205A9E9FEEE70D6
:100BF30039750E008017850E08750900E50A25086A
:100C0300F582E50B3509F583E0620C050EE50EC3AD
:100C1300940440E2750F00E50A250EF582E50B35D5
:100C23000FF583E0650C60027E017A80790E120273
:100C33006CEEF974041205A97F0802068574F41298
:100C4300061974F3120593EAFEEBFF7508017A089F
:100C530079081202668510828511837493F07401FA
:100C63001205FC7470F07800802F8808750900EE77
:100C73002508F582EF3509F583E0C0E0880875099A
:100C830000851082851183E5822508F582E5833589
:100C930009F583A3A3D0E0F008E8C3940540CB741F
:100CA300071205FCAC82AD83790785108285118319
:100CB300AA82AB8312023674091205FC8582088569
:100CC3008309780812078274021205FC858208855D
:100CD300830978081207827C0974041205FCAA822E
:100CE300AB83790C12026074041205A9E9F508E5D7
:100CF30008702674091205FCC082C083900824780A
:100D0300081204B5D083D082780812038C700A8548
:100D13001082851183E0F980027900740D1205A910
:100D23007F0402068574F612061974F0120593E91E
:100D3300FEEAFF741A1205FCE0F8A3E0F975080156
:100D4300EEC0E074041205FCD0E0F0EFC0E07405DF
:100D53001205FCD0E0F07A00802E8A08750900ECB9
:100D63002508F582ED3509F583E0C0E08A087509A9
:100D73000074041205FCE5822508F582E583350934
:100D8300F583A3A3D0E0F00AEAC3940640CC7A002B
:100D930080348A08750900E82508F582E93509F5E4
:100DA30083E0C0E08A0875090074041205FCE5823B
:100DB3002508F582E5833509F583A3A3A3A3A3A39C
:100DC300A3A3D0E0F00AEAC3940440C68510828549
:100DD30011838582088583097808120782740612B5
:100DE30005FC85820885830978081207827C0C74C8
:100DF300081205FCAA82AB83790E120260740412F6
:100E030005A9E9F508E508700B790812027EE9F8EF
:100E1300A2E34003750801A90874101205A97F0213
:100E230002068574F212061974EA120593E9FE8A22
:100E33000C8B0D74041205FC74A0F0EEC0E0740575
:100E43001205FCD0E0F074061205FCAC82AD837988
:100E53000274041205FCAA82AB8312023685108247
:100E630085118385820885830978081207827406B1
:100E73001205FC85820885830978081207827C04A1
:100E830074081205FCAA82AB83790C120260740405
:100E93001205A9E9F9E97029851082851183C082B9
:100EA300C08390082878081204B5D083D0827808CC
:100EB30012038C700C74041205FCE0540F640A6076
:100EC300027901E96003020F817800802E8808759A
:100ED3000900E50C2508F582E50D3509F583E0C029
:100EE300E0880875090074041205FCE5822508F5FD
:100EF30082E5833509F583D0E0F008E8C394104018
:100F0300CC74141205FCAC82AD8379107404120501
:100F1300FCAA82AB831202368510828511838582F7
:100F230008858309780812078274061205FC8582F6
:100F33000885830978081207827C1274081205FC5D
:100F4300AA82AB83790C12026074041205A9E9F931
:100F5300E97029851082851183C082C08390082897
:100F630078081204B5D083D082780812038C700CF1
:100F730074041205FCE0540F640A600279017416CC
:100F83001205A97F0602068574F412061974FC1271
:100F93000593E9FE8A0A8B0B850A82850B837430DD
:100FA300F0EE850A82850B83A3F0E50A2402FCE5B3
:100FB3000B3400FD7902AA0AAB0B120236851082AC
:100FC3008511838582088583097808120782780A48
:100FD3001207827C04AA0AAB0B790C120260740418
:100FE3001205A9E9F9E9701D851082851183C08274
:100FF300C08390082C78081204B5D083D082780877
:1010030012038C6002790174041205A97F0402069D
:101013008574F012061974FA120593E9C0E074019D
:101023001205FCD0E0F074041205FCEAF0A3EBF027
:10103300ECC0E074031205FCD0E0F085108285114A
:10104300837401F07F0074021205FC7400F07E00CB
:101053007A0074011205FCE024F4601024FE70167B
:101063007F1274021205FC7410F0800A7F777402F9
:101073001205FC7430F074804FFA79021202787A08
:101083008079041202667A80790A12026C7A0079F6
:101093000112027890083078081204B58022A8085B
:1010A300A90974041205FCE028FAA3E0398A82F541
:1010B30083E0FA79091202789008347808120469F7
:1010C30074031205FCE0F50CE4F50DF50EF50F784D
:1010D3000C79081203A140C674011205FCE0FA79E9
:1010E3000112027874011205FCE0640C600A7401B9
:1010F3001205FCE0640E70077A80790D12026C9081
:10110300083878081204B5790412027EE9FE9008C3
:101113003C7808120469E5084509450A450B600E49
:10112300EEA2E0400974021205FCE05E60D97A8009
:10113300790D120266E5084509450A450B7003025D
:101143001277790612027EE9541B600302126E8540
:1011530010828511837400F0EFA2E0C0D0EEA2E00C
:1011630092F0120606158182F050098510828511CE
:10117300837402F074011205FCE0640C6003021234
:1011830077790A12027EE9FE790C12027EE954078E
:10119300FAEA60518E08750900E50824FFF8E509AD
:1011A30034FFF9E875F008A4C8ABF075F000A42B80
:1011B300FB75F008E9A42BF98A08750900E82508EE
:1011C300FAE93509FBEB3395E0FCFD74181205FCD5
:1011D300E0F8A3E0F5838882EAF0A3EBF0A3ECF058
:1011E300A3EDF08037EEFA7B00EA75F008A4CAA8F5
:1011F300F075F000A428F875F008EBA428FBEB3396
:1012030095E0FCFD74181205FCE0F8A3E0F5838873
:1012130082EAF0A3EBF0A3ECF0A3EDF0EE70027E14
:1012230001EEC3941140027E109008307808120436
:10123300B58E0CE4F50DF50EF50F780C7908120355
:10124300A15031790912027EE9C0E0A808A9097406
:10125300161205FCE028FAA3E0398A82F583D0E070
:10126300F0900834780812046980C68510828511CD
:10127300837401F07A80790C12026C7A007901127E
:101283000278851082851183E0F974061205A97F1F
:101293000802068574F7120619E9FEEAFFEEF91251
:1012A300027EE9F8EFF458FAEEF91202787F0102B0
:1012B300068574F7120619E9FEEAFFEEF912027EBB
:1012C300E94FFAEEF91202787F0102068578008071
:1012D300020008E8C39940F90200FB74F7120619EB
:1012E300E9FFEAFEC292C293EFC333547EF91203BD
:1012F30002EEF9120302D292D2937F0102068574A1
:10130300F7120619E9FEC292C293C3334480F9125D
:1013130003021202FCE9F9D292D2937F01020685FD
:1013230074F71206197E0112018EE9FEF97F01029C
:10133300068574F412061974F81205939007F8C021
:1013430082C08374041205FCAC82AD83D083D08247
:1013530074041205059007FCC082C0838510828542
:101363001183AC82AD83D083D082740412050575DA
:1013730008017E107F00802875090478091207860A
:1013830074051205FCAC82AD83EEFAEFFB79A01273
:10139300012874011205A9E9EE2404FEEF3400FFCD
:1013A300C3EE9423EF940040CF7E107F008008EEBD
:1013B3002404FEEF3400FFC3EE9423EF9400505255
:1013C300750904780912078674011205FCAC82AD15
:1013D30083EEFAEFFB79A012012E74011205A9E93D
:1013E300750A04750B00780A12078274061205FC4D
:1013F300AC82AD8374021205FCAA82AB831203860E
:1014030074021205A98A0A8B0BE50A450B60A075C5
:101413000800E50860030214BC7E107F0080287575
:101423000904780912078674051205FCAC82AD83A2
:10143300EEFAEFFB79A012012874011205A9E9EE77
:101443002404FEEF3400FFC3EE9423EF940040CF57
:101453007E107F008008EE2404FEEF3400FFC3EE0D
:101463009423EF9400505275090478091207867487
:10147300011205FCAC82AD83EEFAEFFB79A01201F9
:101483002E74011205A9E9750A04750B00780A1276
:10149300078274061205FCAC82AD8374021205FC4C
:1014A300AA82AB8312038674021205A98A0A8B0BE4
:1014B300E50A450B60A0750800A90874081205A980
:1014C3007F0402068574F712061974FC12059390C3
:1014D3000800C082C083851082851183AC82AD83EE
:1014E300D083D08274041205057C017A007B0079D5
:1014F300A0120122E97C017A017B0079A01201226A
:10150300E97C017A027B0079A0120122E97C017A4D
:10151300037B0079A0120122E975080478081207F9
:101523008674011205FCAC82AD837A007B0079A03E
:1015330012012E74011205A9E9851082851183E039
:101543006401701E74011205FCE0640170147402DE
:101553001205FCE06401700A74031205FCE06401E7
:1015630060307C017A007B0079A0120122E97C01C2
:101573007A017B0079A0120122E97C017A027B00C7
:1015830079A0120122E97C017A037B0079A0120180
:1015930022E974041205A97F0102068574F7120675
:1015A300197508047808120786EAFCEBFD7A007BBC
:1015B3000079A012012E74011205A9E97F01020628
:1015C3008574F012061974F2120593851082851141
:1015D30083EAF0A3EBF0750A01900804C082C0838C
:1015E30074021205FCAC82AD83D083D082740412E2
:1015F3000505900808C082C083740A1205FCAC82FA
:10160300AD83D083D082740412050590080CC08288
:10161300C08374061205FCAC82AD83D083D0827480
:10162300041205057508237509007E237F00750ED6
:1016330010750F000216DA742365087004740065D0
:1016430009600A74236E700374006F707E742365DF
:10165300087004740065097035750C04750D007805
:101663000C120782740C1205FCAC82AD8374041255
:1016730005FCAA82AB8312038674021205A98A0CA5
:101683008B0DE50C450D7006850E08850F09742337
:101693006E700374006F7033750C04750D00780C55
:1016A30012078274081205FCAC82AD837404120520
:1016B300FCAA82AB8312038674021205A98A0C8BDF
:1016C3000DE50C450D7004AE0EAF0FE50E2404F5C9
:1016D3000EE50F3400F50FC3E50E9423E50F9400D8
:1016E3005056750B04780B12078674031205FCAC75
:1016F30082AD83AA0EAB0F79A012012E74011205DD
:10170300A9E9750C04750D00780C12078274041294
:1017130005FCAC82AD8374021205FCE0FAA3E0FB86
:1017230012038674021205A98A0C8B0DE50C450D74
:10173300600302163A750A007401650A6003021712
:10174300CB74236508700474006509602CA808A98C
:10175300097A047B001205278A0C8B0DE50C450DD5
:101763007017AC08AD09851082851183E0FAA3E0F8
:10177300FB1201B2E9F50A804F74236E7003740003
:101783006F602CEEF8EFF97A047B001205278A0CC0
:101793008B0DE50C450D7017EEFCEFFD8510828572
:1017A3001183E0FAA3E0FB1201B2E9F50A80197490
:1017B300236508700474006509700D74236E70034B
:1017C30074006F7003750A03A90A740E1205A97FCA
:1017D3000802068574F212061974F81205938A0A30
:1017E3008B0B750800900810C082C083851082851A
:1017F3001183AC82AD83D083D0827404120505902B
:101803000814C082C08374041205FCAC82AD83D07B
:1018130083D08274041205057E107F008008EE24B5
:1018230004FEEF3400FFC3EE9423EF9400505D7584
:101833000904780912078674011205FCAC82AD8392
:10184300EEFAEFFB79A012012E74011205A9E975D6
:101853000C04750D00780C12078274021205FCAC9F
:1018630082AD83AA0AAB0B12038674021205A98AFE
:101873000C8B0DE50C450D70A5EEFCEFFD74041209
:1018830005FCAA82AB831201B2E9F508A908740822
:101893001205A97F0602068574F212061974FC125A
:1018A30005938A0A8B0B750800900818C082C083C1
:1018B300851082851183AC82AD83D083D08274047A
:1018C3001205057E107F008008EE2404FEEF34002D
:1018D300FFC3EE9423EF9400504D75090478091269
:1018E300078674011205FCAC82AD83EEFAEFFB7937
:1018F300A012012E74011205A9E9750C04750D00DF
:10190300780C12078274021205FCAC82AD83AA0A1A
:10191300AB0B12038674021205A98A0C8B0DE50C1E
:10192300450D70A5750801A90874041205A97F0661
:1019330002068574F212061974FC1205938A0A8B47
:101943000BECFEEDFF90081CC082C08385108285DE
:101953001183AC82AD83D083D082740412050575E4
:1019630008017509047809120786AC0AAD0BEEFA73
:10197300EFFB79A012012874011205A9E975090486
:10198300780912078674011205FCAC82AD83EEFA66
:10199300EFFB79A012012E74011205A9E9750C045D
:1019A300750D00780C120782AC0AAD0B7402120598
:1019B300FCAA82AB8312038674021205A98A0C8BDC
:1019C3000DE50C450D60487509047809120786ACCE
:1019D3000AAD0BEEFAEFFB79A01201287401120590
:1019E300A9E9750C04750D00780C120782AC0AADD9
:1019F3000B74021205FCAA82AB83120386740212D3
:101A030005A98A0A8B0BE50A450B6003750800A933
:101A13000874041205A97F0602068574F4120619D8
:101A230074EC12059389097E019007BEC082C083BE
:101A330074041205FCAC82AD83D083D0827410127F
:101A430005057508009007CEC082C0838510828586
:101A53001183AC82AD83D083D08274041205057FD9
:101A63000012031A9001037402F074041205FCAA15
:101A730082AB83793E12017CE9FEEE6003021C53C4
:101A830074016509707574041205FCE06401700A41
:101A930074051205FCE06401602874041205FCE07F
:101AA3006402700A74051205FCE064026014740495
:101AB3001205FCE06404700F74051205FCE0640475
:101AC30070057E01021BD574101205FCAA82AB833C
:101AD3001201A0E9FF74016F70057E00021BD5EFB0
:101AE30070057E01021BD574036F6003021BD59042
:101AF30001037401F0120362021BD57402650960CD
:101B030003021BD5851082851183AA82AB83120140
:101B13009A74041205FCE06402704074051205FC1B
:101B2300E06402703674061205FCE0F885108285C5
:101B33001183E068702574071205FCE0F874011244
:101B430005FCE068701505089001037401F01203A9
:101B5300389001037402F0C295805F74041205FC8F
:101B6300E06401700A74051205FCE06401602874E6
:101B7300041205FCE06402700A74051205FCE064BB
:101B830002601474041205FCE06404700E74051200
:101B930005FCE0640470047E01801F750800741066
:101BA3001205FCAA82AB831201A6E9FF74016F70D0
:101BB300047E008005EF70027E01E508C3940540B2
:101BC300119001037401F0120188E9D29512037494
:101BD300C295EE701874036F6013E508700F9001DF
:101BE300037401F01203689001037402F074016E30
:101BF300701A74036F6015E5087011900103740186
:101C0300F012036EC2959001037402F07E017F000F
:101C1300750A10750B00780A1207827C007D007428
:101C2300061205FCAA82AB8312038074021205A973
:101C3300750A04750B00780A1207827C007D007414
:101C4300021205FCAA82AB8312038074021205A957
:101C5300900103E064027003021A6D9001037400A3
:101C6300F0120320EEF974141205A97F040206850D
:101C730074F412061974EA1205938908EAFEEBFF5D
:101C83009007D2C082C083851082851183AC82AD58
:101C930083D083D08274061205059007D8C082C012
:101CA3008374061205FCAC82AD83D083D08274109A
:101CB30012050512022A75090378091207867407AB
:101CC3001205FCAC82AD83A90874011205FCAA823B
:101CD300AB8312018274011205A9E9F50974016548
:101CE30009700479018050750A10750B00780A1287
:101CF300078274081205FCAC82AD83EEFAEFFB1287
:101D0300037A74021205A9750A04750B00780A1286
:101D1300078274021205FCAC82AD83EE240CFAEF49
:101D23003400FB12037A74021205A91202247A0A00
:101D33007B0012032CA90974161205A97F0402065D
:101D43008574F012061974F01205938A088B09E959
:101D5300FE8C0E8D0F74201205FCE0F50C9007E845
:101D6300C082C083851082851183AC82AD83D0830A
:101D7300D0827410120505851082851183AA82AB67
:101D830083792612023CE9FF851082851183AA829A
:101D9300AB83120242E9FFEF7020750A05750B0051
:101DA300780A12078274021205FCAC82AD83AA087A
:101DB300AB0912037A74021205A97402650C702F21
:101DC300AA08AB09120248E978081207827C0A7D47
:101DD30001EEFA796012024E74021205A9E9FFEFCF
:101DE3007069AA0EAB0FEEF9120254E9FF805C741E
:101DF30003650C7056AA08AB09120248E978081269
:101E030007827C0A7D01EEFA796012024E74021297
:101E130005A9E9FFEF7034851082851183AA82AB8F
:101E230083EEF912025AE9FFEF7020750810750965
:101E330000780812078274021205FCAC82AD83AAF3
:101E43000EAB0F12037A74021205A9EFF974101284
:101E530005A97F08020685C082C08374F912059321
:101E6300900840C082C083851082851183AC82AD07
:101E730083D083D082740712050585108285118370
:101E830074071207951202A274071205A9E97B8051
:101E93007A0979A21202AEE97B807A0A79A2120248
:101EA300AEE97B807A0B79A21202AEE97B807A0CD1
:101EB30079A21202AEE97B007A0D79A21202AEE991
:101EC30074071205A9D083D0820200FB74F71206AF
:101ED3001974F91205937E0174161205FCE0FB7A5E
:101EE3000279A21202AEE974151205FCE0FB7A0333
:101EF30079A21202AEE974141205FCE0FB7A0479AC
:101F0300A21202AEE974121205FCE0FB7A0579A273
:101F13001202AEE974131205FCE0FB7A0679A212F1
:101F230002AEE974111205FCE0FB7A0779A21202F2
:101F3300AEE974101205FCE0FB7A0879A21202AE36
:101F4300E9851082851183AA82AB831202A87405E6
:101F53001205FCE0F874151205FCE068705874046F
:101F63001205FCE0F874141205FCE0687048740272
:101F73001205FCE0F874121205FCE0687038740373
:101F83001205FCE0F874131205FCE0687028740174
:101F93001205FCE0F874111205FCE0687018851056
:101FA30082851183E0F874101205FCE06870077EE7
:101FB30002EEF902209874161205FCE0FB7A02790E
:101FC300A21202AEE974151205FCE0FB7A0379A2B2
:101FD3001202AEE974141205FCE0FB7A0479A21232
:101FE30002AEE974121205FCE0FB7A0579A2120233
:101FF300AEE974131205FCE0FB7A0679A21202AE75
:10200300E974111205FCE0FB7A0779A21202AEE92A
:1020130074101205FCE0FB7A0879A21202AEE9857E
:102023001082851183AA82AB831202A8740512055C
:10203300FCE0F874151205FCE06870557404120591
:10204300FCE0F874141205FCE06870457402120594
:10205300FCE0F874121205FCE06870357403120595
:10206300FCE0F874131205FCE06870257401120596
:10207300FCE0F874111205FCE06870158510828588
:102083001183E0F874101205FCE06870047E02808E
:10209300027E01EEF974071205A97F010206857419
:1020A300F712061974F2120593EAFEEBFF90084744
:1020B300C082C083851082851183AC82AD83D083B7
:1020C300D08274071205057B07851082851183ACC6
:1020D30082AD837A0279A21202B4E9851082851156
:1020E30083E0C0E0740D1205FCD0E0F0740112052A
:1020F300FCE0C0E0740C1205FCD0E0F074021205A1
:10210300FCE0C0E0740B1205FCD0E0F07403120590
:10211300FCE0C0E074091205FCD0E0F07404120581
:10212300FCE0C0E0740A1205FCD0E0F0740512056F
:10213300FCE0C0E074081205FCD0E0F07406120560
:10214300FCE0C0E074071205FCD0E0F07407120550
:10215300FCEEFCEFFDECFAEDFB74071204E4740EE5
:102163001205A97F0102068574F71206198908EA88
:10217300FFEBFE1201D6A9081201E8E9F874016821
:10218300700479008025EFF91201E8E9F874016819
:10219300700479008015EEF91201E8E9F87401681A
:1021A3007004790080051201DC79017F0102068544
:1021B30074F0120619E9FE8A0D8C0E8D0FEBFF12D7
:1021C30001D6EEF91201E8E9F874016870057900A7
:1021D300022272A90D1201E8E9F874016870057909
:1021E300000222721201D674012EF91201E8E9F8F5
:1021F300740168700479008076750C0080221201E6
:10220300EEE9C0E0850C08750900E50E2508F582A6
:10221300E50F3509F583D0E0F079001201F4050CE0
:10222300850C087509008F0A750B00E50A24FFF871
:10223300E50B34FFF9C3E50898E50999A2D265D007
:102243003340BB1201EEE9C0E08F08750900E50ECB
:102253002508F8E50F3509F9E824FFF582E934FF8D
:10226300F583D0E0F079011201F41201DC79017FEA
:1022730008020685C082C083C29543FF0143F5016E
:1022830043EB1075ED2D7A647B0012032CD295532A
:10229300FFFE53F5FE53EBEFD083D0820200FBC069
:1022A30082C083C29543FF0143F50143EB1075EDF3
:1022B300207A647B0012032CD29553FFFE53F5FE64
:1022C30053EBEF7A647B0012032CD083D08202009D
:1022D300FB74F7120619E9FE74016E7004C295804F
:1022E30002D29543FF0143F50143EB1075ED207ACC
:1022F300647B0012032C53FFFE53F5FE53EBEF7A7E
:10230300647B0012032C7F01020685C082C08375A3
:10231300ED3C43FF0143F50143EB107A647B00126C
:10232300032C7A647B0012032C53FFFE53F5FE53F8
:10233300EBEF75ED3243FF0143F50143EB107A6494
:102343007B0012032C7A647B0012032C53FFFE5391
:10235300F5FE53EBEF75ED2843FF0143F50143EB26
:10236300107A647B0012032C7A647B0012032C53D3
:10237300FFFE53F5FE53EBEFD083D0820200FBC088
:1023830082C08375ED2843FF0143F50143EB107AC7
:10239300647B0012032C7A647B0012032C53FFFE30
:1023A30053F5FE53EBEF75ED3243FF0143F5014364
:1023B300EB107A647B0012032C7A647B0012032CEB
:1023C30053FFFE53F5FE53EBEF75ED3C43FF014323
:1023D300F50143EB107A647B0012032C7A647B00D3
:1023E30012032C53FFFE53F5FE53EBEFD083D08241
:1023F3000200FBC082C083C2957A647B0012032C67
:10240300D2957A647B0012032CC2957A647B001206
:10241300032CD2957A647B0012032CC2957A647BD9
:102423000012032CD2957A647B0012032CD083D044
:10243300820200FBC082C083C2951203447AE87B08
:102443000312032CD083D0820200FBC082C083120C
:10245300034AD083D0820200FBC082C083D2957529
:10246300ED2043FF0143F50143EB107A647B001237
:10247300032C7A647B0012032C53FFFE53F5FE53A7
:10248300EBEF75ED3C43FF0143F50143EB107A6439
:102493007B0012032C7A647B0012032C53FFFE5340
:1024A300F5FE53EBEFC295D083D0820200FBC082CE
:1024B300C083D29543FF0143F50143EB1075ED3C17
:1024C3007A647B0012032C53FFFE53F5FE53EBEFAC
:1024D3007A647B0012032C43FF0143F50143EB10A5
:1024E30075ED207A647B0012032C53FFFE53F5FE37
:1024F30053EBEFC295D083D0820200FBC082C0832E
:10250300120338120338D083D0820200FBC082C08A
:102513008375ED2043FF0143F50143EB107A647BA0
:102523000012032C53FFFE53F5FE53EBEF75ED281A
:1025330043FF0143F50143EB107A647B0012032C44
:1025430053FFFE53F5FE53EBEF75ED3043FF0143AD
:10255300F50143EB107A647B0012032C53FFFE5307
:10256300F5FE53EBEF75ED2343FF0143F50143EB19
:10257300107A647B0012032C53FFFE53F5FE53EBDA
:10258300EF75ED2D43FF0143F50143EB107A647BB7
:102593000012032C53FFFE53F5FE53EBEF75ED32A0
:1025A30043FF0143F50143EB107A647B0012032CD4
:1025B30053FFFE53F5FE53EBEFD083D0820200FBB3
:1025C30074EA120593750802750901900852C082D6
:1025D300C08374021205FCAC82AD83D083D08274B5
:1025E30004120505900856C082C08374061205FCC8
:1025F300AC82AD83D083D08274101205057E007F38
:1026030000900866C082C083851082851183AC82E6
:10261300AD83D083D0827402120505900100740348
:10262300F09001097402F0C2AF12030812015212B2
:1026330002F612030E12031412014C1203261202A5
:10264300001202BA1202D8120218D2AF7900120194
:102653007012029C12019412033279021201BE809D
:1026630003750802E5081460161470030227311479
:10267300700302280A24FD700302286602286F797A
:1026830002120170C2957A0A7B0012032C120140D8
:102693008A088B09AE08AF09EE851082851183F095
:1026A300EEF8EFF9E4E9F8C0E074011205FCD0E0BC
:1026B300F07902851082851183AA82AB831202C04E
:1026C300D295EEC394ACF8EF940DF9C3E89491E975
:1026D3009401503AC2957AE87B0312032CD2957485
:1026E300061205FCAA82AB83793E12017CE9F50947
:1026F300E5097003022664900109E0640170067520
:10270300080302266775080112016A022667C3EEF1
:1027130094ACEF940D500CC295790212015E7903CB
:102723001202E4790012017075080202266774062A
:102733001205FCAA82AB83793E12017CE9F509E517
:10274300096003022804A28540030227FB740212D6
:1027530005FCAA82AB8312019A74081205FCE0F807
:1027630074021205FCE068707674091205FCE0F847
:1027730074031205FCE068706674061205FCE064DD
:1027830001700A74071205FCE064016014740612F8
:1027930005FCE06402702F74071205FCE06402700C
:1027A3002579011201B8D2957AE87B0312032C79BB
:1027B3000112033E74061205FCE0F9120176E97971
:1027C300011201BE803574061205FCE06404702B0F
:1027D30074071205FCE0640470211201C4801C74A8
:1027E300121205FCAA82AB831201ACE96005120147
:1027F300C4800812036E8003120350750801022679
:10280300677508030226677902120170900109E0D7
:10281300640170441203567A007B008008EA2401A5
:10282300FAEB3400FBC3EA9440EB949C501B780012
:1028330079008008E82401F8E93400F9C3E894C872
:10284300E9940040EFA28150D49001097402F01280
:10285300035C75080102266779001201707508068A
:1028630002266775080212016A02266775080202CA
:1028730026677C007D008019E82401F8E93400F91B
:10288300C3E8944BE9940240EFEC2401FCED3400DF
:10289300FDC3EC9AED9B50067800790080E20200BC
:1028A300FB74F61206198909EAFEEBFF8C08120184
:1028B300D6A9091201E8E9F8740168700479008067
:1028C30042EEF8EFF9E4E9F8F91201E8E9F87401E6
:1028D3006870047900802CEEF91201E8E9F87401BC
:1028E3006870047900801CA9081201E8E9F87401F2
:1028F3006870047900800C1201DC7A0C7B001201F1
:102903001C79017F0202068574F2120619890AEA0C
:10291300FEEBFF8C088D09740E1205FCE0F50B121B
:1029230001D6A90A1201E8E9F87401687004790074
:10293300805EEEF8EFF9E4E9F8F91201E8E9F874DA
:102943000168700479008048EEF91201E8E9F8742F
:1029530001687004790080387E0080010EEEC39513
:102963000B50218E0C750D00E508250CF582E50949
:10297300350DF583E0F91201E8E9F874016870DCBC
:102983007900800C1201DC7A0C7B0012011C7901A6
:102993007F0602068574F01206198908EAFEEBFF2A
:1029A3008C0E8D0F74101205FCE0F5091201D6A9E7
:1029B300081201E8E9F874016870057900022A75C4
:1029C300EEF8EFF9E4E9F8F91201E8E9F8740168BF
:1029D30070057900022A75EEF91201E8E9F874012D
:1029E3006870057900022A751201D674012508F969
:1029F3001201E8E9F87401687004790080747E00BC
:102A030080201201EEE9C0E08E0A750B00E50E2569
:102A13000AF582E50F350BF583D0E0F0790012015A
:102A2300F40E8E0A750B0085090C750D00E50C2458
:102A3300FFF8E50D34FFF9C3E50A98E50B99A2D237
:102A430065D03340BD1201EEE9C0E085090A750B7C
:102A530000E50E250AF8E50F350BF9E824FFF582AA
:102A6300E934FFF583D0E0F079011201F41201DCBF
:102A730079017F0802068574F7120619E9FEF91237
:102A8300033E12028A12028A7A0A7B0012032C1274
:102A930002901202907A0A7B0012032C12028A120D
:102AA300028A7A0A7B0012032C7A0A7B0012032C17
:102AB3001202901202907A0A7B0012032C7A0A7B8C
:102AC3000012032C12028A12028A7A0A7B00120372
:102AD3002C7A0A7B0012032C7A0A7B0012032C7ACD
:102AE3000A7B0012032C1202901202907A0A7B00D6
:102AF30012032C7A0A7B0012032C7A0A7B0012033E
:102B03002C7A0A7B0012032C1202967A647B001241
:102B1300032C12028A12028A7A647B0012032C7A33
:102B2300647B0012032C1202961202961203447F56
:102B33000102068574F7120619E9FE1202901202C9
:102B4300907A0A7B0012032C12028A12028A7A0AF2
:102B53007B0012032C1202901202907A0A7B00125D
:102B6300032C7A0A7B0012032C12028A12028A7A3D
:102B73000A7B0012032C7A0A7B0012032C12028AAE
:102B830012028A7A0A7B0012032C7A0A7B00120350
:102B93002C7A0A7B0012032C7A0A7B0012032C1274
:102BA30002901202907A0A7B0012032C7A0A7B00AD
:102BB30012032C7A0A7B0012032C7A0A7B0012037D
:102BC3002C1202967A647B0012032C1202901202DA
:102BD300907A647B0012032C7A647B0012032C121C
:102BE300029612029612034A74026E7004D2958002
:102BF30002C2957F0102068574F71206197E0079D9
:102C0300011201B812020C9001007402F012031AAF
:102C13009001037402F0900100E0640170127A0ADB
:102C23007B0012032CA28450079001007402F00E63
:102C3300EEC39401400F7E009001037401F07A0A01
:102C43007B0012032C900103E0640260C99001032E
:102C53007400F012032079011201BE1202069001E2
:102C6300007403F07F0102068575E40E75DA6A7558
:102C7300DB1843E5040200FB75CB0675CC0075CD6C
:102C83000075CE0075CF0043CB0843CBE053CBFC9C
:102C930043CB100200FBD2B9D2BB0200FBC2B9C2C4
:102CA300BB0200FBC082C0839001057400F0900159
:102CB300067400F09001077400F09001017401F0B4
:102CC3009001027401F09001037400F09001087404
:102CD30000F09001047401F0D083D0820200FB74F1
:102CE300F7120619EAFEEBFF12031A740A6E700359
:102CF30074006F70599001047402F07800790080B9
:102D030008E82401F8E93400F9C3E89464E994007D
:102D1300502D7A007B008008EA2401FAEB3400FB93
:102D2300C3EA94C8EB940040EF900104E06403709D
:102D3300D09001047401F0E82401F8E93400F9901B
:102D430001047401F09001087400F0022E137464FE
:102D53006E700374006F70589001017402F0780074
:102D630079008008E82401F8E93400F9C3E89458AD
:102D7300E99402502D7A007B008008EA2401FAEBE3
:102D83003400FBC3EA94C8EB940040EF900101E0E8
:102D9300640370D09001017401F0E82401F8E93470
:102DA30000F99001017401F09001017401F0806059
:102DB30074E86E700374036F70569001027402F02E
:102DC300780079008008E82401F8E93400F9C3E8C1
:102DD3009470E99417502D7A007B008008EA24014F
:102DE300FAEB3400FBC3EA94C8EB940040EF900184
:102DF30002E0640370D09001027401F0E82401F84A
:102E0300E93400F99001027401F09001067400F0B6
:102E1300900103E070031203207F01020685C08244
:102E2300C083906189E0D2E6F0906180740CF090E9
:102E3300619074F5F090618F740BF090619674F863
:102E4300F09061AE7400F09061FA7409F09061B291
:102E53007415F09061B374FEF09061A3E0D2E6F0D4
:102E630075E1ED75E1E3D083D0820200FB74F612C5
:102E7300061975E1E3906193E0542270F89061A321
:102E8300E0C2E6F0539AFE75E1EE7591FD740229F6
:102E9300F5D97C007D0080188A828B83E0F5D98A7E
:102EA300828B83A3AA82AB83EC2401FCED3400FD67
:102EB3008908750900C3EC9508ED950940DA75E1B9
:102EC300E9E591A2E150FA7591FD9061A3E0D2E6A4
:102ED300F0439A017F0202068574F4120619EAFE92
:102EE300EBFF750B007A00E5D924FEF50BC3E50B68
:102EF30092E7F50B750A008020E5D9C0E0850A0842
:102F0300750900EE2508F582EF3509F583D0E0F069
:102F13007AC87B001202CC050AE50AC3950B40D997
:102F2300E5D975090024B7F8E50934FFF9E5D9FABD
:102F3300E82464F8E93400F97F040206857800790F
:102F4300008008E82401F8E93400F9C3E89AE99B12
:102F530040F1780079008008E82401F8E93400F9A9
:102F6300C3E89AE99B40F1780079008008E82401DE
:102F7300F8E93400F9C3E89AE99B40F17800790055
:102F83008008E82401F8E93400F9C3E89AE99B4092
:102F9300F1780079008008E82401F8E93400F9C3E6
:102FA300E89AE99B40F10200FB43FE0C0200FB7828
:102FB3000080050000000008E8C39940F60200FB0A
:102FC300C082C08343FE04D29279021201D0D2930D
:102FD30079041201D0C29279041201D0C29379020A
:102FE3001201D0D083D0820200FBC082C08343FE93
:102FF30004C29279021201D0D29379041201D0D281
:103003009279041201D0C29379021201D0D083D0F5
:10301300820200FBC082C08353FEFB79011201D000
:10302300A2924004790080027901D083D082020009
:10303300FB74F6120619E9FF7E008011C292790132
:103043001201D0D29379041201D0C2930EEEC3942D
:1030530008501843FE048F08750900EE780812051E
:1030630080E508548060D5D29280D379021201D0D2
:10307300D29279021201D0D29379031201D01201B4
:10308300E2E9FEC29379021201D043FE04EEF97F16
:103093000202068574F71206197E0053FEFBD292D4
:1030A3007F00802879011201D0C29379041201D0E4
:1030B300D29379021201D0EEC333FE1201E2E9F892
:1030C30074016870010E79021201D00FEFC39408E6
:1030D30040D2C29379041201D043FE04EEF97F017A
:1030E30002068574F7120619E9FE7004C292800283
:1030F300D29279031201D0D29379041201D0C293F0
:1031030079021201D07F0102068553F4BF53FEBF3B
:1031130053F6BF0200FB759700759600759500D2B4
:10312300ADC2C70200FB74F012061974FC120593BA
:10313300E9FA90083078081204B585108285118366
:1031430078081204C8859508E4F509F50AF50B8596
:1031530010828511837808120493859608E4F50993
:10316300F50AF50B7408780812044A851082851154
:10317300837808120493859708E4F509F50AF50B9B
:103183007410780812044A85108285118378081216
:1031930004938A08E4F509F50AF50B90084E780CB8
:1031A3001204B57808790C1203B185108285118356
:1031B300780812048085108285118378081204A68A
:1031C30074107808120431E508F59785108285118B
:1031D3008378081204A6E4E509F508E508F5968561
:1031E300108285118378081204A6E508F595740406
:1031F3001205A97F08020685E9C39404500B53BE48
:10320300FCE942BE75870180037587000200FBC09D
:1032130082C0831202121202D212028412014612D7
:1032230001FA1201341201CA1202F0120158D083BA
:10323300D0820200FB53F6AF53F7F953FEAF53FFAF
:10324300F90200FB74F7120619E9FE12015843FF55
:103253000153F7FED2A0538FCD53FDCD74016E7091
:1032630002D295120296120224C2977902120170B9
:103273007F01020685C082C08379001201701202A9
:103283001ED083D0820200FBC082C0837901120169
:103293005E7A0A7B0012032C79011202DE79021294
:1032A30002E4D083D0820200FBC2B9C2BB53ABEDB0
:1032B300539AFEE914600B14601314600B1460122C
:1032C3008013D2B9D2BB800D43AB10800843AB024D
:1032D3008003439A010200FB53FDFE43F30175F2A1
:1032E300010200FBE5BBF875BB00E5BAF975BA004E
:1032F30075B63043B43043B4400200FB74F5120694
:10330300197C007D007E007F007A007B0075080039
:10331300750900750A00803C12013AE5B4A2E75032
:10332300FAE5BA1313543FFC7D00A8BB888275836A
:103333000085820885830974067808120580E508EC
:103343004CFCE5094DFDEE2CFEEF3DFF75080075C5
:103353000900050AE50AC3940540BDEEF8EFF97AC2
:10336300057B0012052788088909AA08AB097F0392
:1033730002068574F6120619740A1205FCE0FEA310
:10338300E08007EE24FF1EEF34FFFFEE4F604EECAC
:10339300F8EDF988828983A3AC82AD838A828B831B
:1033A300E0F50888828983E065087016EAF8EBF98E
:1033B30088828983A3AA82AB8388828983E070C3CE
:1033C300801B8A828B83E0F8EC24FFF582ED34FFC7
:1033D300F583E0FAE8C39AFA95E0FB80047A007B70
:1033E300007F02020685780080020008E8C3994046
:1033F300F90200FB43FE8C43FD0453FDF70200FB7F
:10340300C082C083C29379081202EAD292D083D0D9
:10341300820200FB7900C29378088010D293E9C33B
:1034230033F9A283E433C949F9C29318E8C3940179
:1034330050EA0200FBC2937808800EE9A2E7928269
:10344300D293E9C333F9C29318E8C3940150EC0251
:1034530000FB53F33F53F4FC43FDC043FE03020060
:10346300FBC082C083120296C286D287D291C290D9
:10347300D083D0820200FBC082C083120296D28620
:10348300C287C291D290D083D0820200FBD286D26F
:1034930087C291C2900200FB74F6120619740A12D5
:1034A30005FCE0FEA3E0FFEAF8EBF980188C828DBF
:1034B30083E088828983F0A3A882A9838C828D8389
:1034C300A3AC82AD838E088F09E50824FF1EE509AE
:1034D30034FFFFE508450970D47F0202068574F7BF
:1034E30012061974091205FCE0F8A3E0F98A828B2D
:1034F300838003ECF0A3E8FEE9FFEE24FF18EF342A
:10350300FFF9EE4F70ED7F01020685538FCD53FD1A
:10351300CD0200FBD2BD438C01E589758900020011
:10352300FB53ABED0200FB43AB100200FBD2A053F5
:10353300F7FE53F5FE53FFFE0200FB75EC1C75ED21
:10354300FF43EBE343F1100200FB53C6BFE59EA22A
:10355300E640FA53C6B80200FB53F4DF43FE2053A0
:05356300F6DF0200FB91
:04000005000000E314
:00000001FF
